:020000042000DA
:10000000554F5343000101000300000000000000B1
:100010004F00002029020020890400208B040020CA
:1000200043000020450000208D0400200000000057
:1000300000000000000000000000000000000000C0
:100040007047704770477047704770477047104B54
:10005000104A2DE9F041884607460021934202D01C
:1000600003F8011FFAE70C4B0C4CE41AA41000250E
:100070001E46A54205D056F8253003B198470135F4
:10008000F7E74146384600F00BF8BDE8F08100BFC5
:10009000271600204F1600204000002040000020BE
:1000A000074B00210022596019601A745A749A741F
:1000B000D9605961D96183F8252083F826207047DB
:1000C0002816002030B5564BD3ED037A2DED048B66
:1000D000F2EE048A67EEA88AB6EE009AF4EEC98AB8
:1000E000F1EE10FA83B01C4615D518EE900A00F018
:1000F0006DFB9FED471B41EC100B00F0BBFE53EC7A
:10010000102B10EE100A194600F002FA00F062FE01
:1001100008EE100A1AE0F1EE687A17EE900A00F085
:1001200055FB9FED3B1B41EC100B00F0A3FE53EC85
:10013000102B10EE100A194600F0EAF90022394B94
:1001400000F0E6F900F046FE08EE100A206807EE1F
:10015000900AF4EEE78AF1EE10FAF7EE008A26DD57
:1001600000F034FB9FED2C1B41EC100B00F082FEE5
:1001700038EE288A53EC102B18EE100ACDE9002334
:1001800000F024FBDDE9002300F074FB68EE097A3F
:10019000044617EE900A0D4600F018FB02460B4687
:1001A0002046294600F0B2F900F014FE27E080F066
:1001B000004000F00BFB9FED181B41EC100B00F012
:1001C00059FE38EE288A53EC102B18EE100ACDE9B0
:1001D000002300F0FBFADDE9002300F04BFB68EEA2
:1001E000097A044617EE900A0D4600F0EFFA02462F
:1001F0000B462046294600F08BF900F0EBFD00EE9F
:10020000100A03B0BDEC048B30BD00BFAFF300801B
:10021000000000000000E03F000000000000F03F90
:10022000281600200000F03FF0B58F4C8388DFEDEA
:100230008F5A0D46617C01EB1326217C314407EE79
:10024000901A2DED0A8BB8EEE77AA17C884EDFED8F
:1002500089AA90ED00BA9FED88CADFED88BAFCEE5E
:10026000C76A83B00B44CDED016ADBB2B7EE00AADA
:1002700007EE903A77EE0A6A9DF80430FCEEE66AE3
:10028000962B94BF19469721CDED016A06EB8101AB
:10029000D1ED009A9DF8041094F82530962988BF76
:1002A000972106EB8101F8EEE77AD1ED006A94F828
:1002B000261027EEA56A76EEE96ABAEEE0BAE6EE17
:1002C000269A05EB8207DFED6E6A39EEE66AB5EE37
:1002D000C06A06EE103AB8EEC66AF1EE10FA36EED3
:1002E000077AA8BFF0EE669ABCEEC77A8DED017A68
:1002F00007EE101AB8EEC77A9DF8043077EE277A29
:10030000962BFCEEE77ACDED017A9DF8041007EE0E
:10031000901A98BF194603F10103DBB288BF9721F9
:10032000962B88BF972306EB810106EB830391EDA3
:10033000009A93ED007A534EF8EEE77A37EE497A59
:1003400067EEA57AA7EE879AB4EEE69AF1EE10FA78
:10035000B8BFF0EE496A26EEAA9ABD427FD094ED6E
:10036000057AD4ED008AFCEEC77AB0EE680AF8EEA2
:10037000677A77EE677A37EE097A67EE8C7AFCEE69
:10038000E76A16EE901A01F07F0306EB8302013351
:10039000F8EE666A03F07F0306EB830392ED008AB2
:1003A00077EEE67AD3ED006A76EEC86A7F29A7EE8B
:1003B000A68AFCEEC77A88BFB1EE488AF8EE677A63
:1003C00037EE677A84ED057AFFF77CFED4ED017A8B
:1003D000B6EE007A77EE8A7A20EE070AFEEE006A21
:1003E00067EE807AF4EEE67AF1EE10FA04D5BFEE0D
:1003F000000A70EE677A08E0F4EEC77AF1EE10FAC0
:10040000C4BFB7EE000A70EE677AF4EEE67AF1EE5A
:1004100010FA04D5BFEE007A77EE677A06E0F4EEC4
:10042000C77AF1EE10FAC8BF7AEE677A94ED077AD0
:100430003BEE088AF0EE696AE8EE076A67EEAB7A8F
:10044000E6EEAA8AFDEEE77ABCEEE87AE5EC017A00
:10045000B8EE477A78EEC78AC4ED008A7DE703B02C
:10046000BDEC0A8BF0BD00BF281600208180803BC8
:1004700000F100083EC3AE37000080430000004F8B
:1004800049FFB846DC2B01087047704707EE901A09
:100490009FED1A7AF8EEE77A67EE877A07282CD86C
:1004A000DFE800F0040A0D1014181C2401EB4101D0
:1004B000134B890019747047114B59747047104BD6
:1004C000997470470E4BC3ED037A70470C4B83F859
:1004D000251070470A4B83F82610704707EE901AD4
:1004E000074BF8EE677AC3ED077A7047B1EE047AEE
:1004F00067EE877A024BC3ED017A70470820803A95
:100500002816002081F0004102E000BF83F0004384
:1005100030B54FEA41044FEA430594EA050F08BF9E
:1005200090EA020F1FBF54EA000C55EA020C7FEA62
:10053000645C7FEA655C00F0E2804FEA5454D4EBDF
:100540005555B8BF6D420CDD2C4480EA020281EAA9
:10055000030382EA000083EA010180EA020281EAE1
:100560000303362D88BF30BD11F0004F4FEA013133
:100570004FF4801C4CEA113102D0404261EB410142
:1005800013F0004F4FEA03334CEA133302D05242C8
:1005900063EB430394EA050F00F0A780A4F1010484
:1005A000D5F1200E0DDB02FA0EFC22FA05F28018BE
:1005B00041F1000103FA0EF2801843FA05F35941A4
:1005C0000EE0A5F120050EF1200E012A03FA0EFC23
:1005D00028BF4CF0020C43FA05F3C01851EBE3714D
:1005E00001F0004507D54FF0000EDCF1000C7EEB6A
:1005F00000006EEB0101B1F5801F1BD3B1F5001FA8
:100600000CD349085FEA30004FEA3C0C04F10104C6
:100610004FEA445212F5800F80F09A80BCF1004FEF
:1006200008BF5FEA500C50F1000041EB045141EA71
:10063000050130BD5FEA4C0C404141EB010111F472
:10064000801FA4F10104E9D191F0000F04BF01461D
:100650000020B1FA81F308BF2033A3F10B03B3F1FB
:1006600020020CDA0C3208DD02F1140CC2F10C028B
:1006700001FA0CF021FA02F10CE002F11402D8BFE9
:10068000C2F1200C01FA02F120FA0CFCDCBF41EAB5
:100690000C019040E41AA2BF01EB0451294330BD84
:1006A0006FEA04041F3C1CDA0C340EDC04F1140461
:1006B000C4F1200220FA04F001FA02F340EA030038
:1006C00021FA04F345EA030130BDC4F10C04C4F17E
:1006D000200220FA02F001FA04F340EA030029465E
:1006E00030BD21FA04F0294630BD94F0000F83F4A8
:1006F000801306BF81F480110134013D4EE77FEA8B
:10070000645C18BF7FEA655C29D094EA050F08BFD6
:1007100090EA020F05D054EA000C04BF19461046B7
:1007200030BD91EA030F1EBF0021002030BD5FEAFB
:10073000545C05D14000494128BF41F0004130BD23
:1007400014F580043CBF01F5801130BD01F0004577
:1007500045F0FE4141F470014FF0000030BD7FEAEA
:10076000645C1ABF194610467FEA655C1CBF0B46E5
:10077000024650EA013406BF52EA033591EA030FFC
:1007800041F4002130BD00BF90F0000F04BF0021F4
:10079000704730B54FF4806404F132044FF0000527
:1007A0004FF0000150E700BF90F0000F04BF0021A0
:1007B000704730B54FF4806404F1320410F0004506
:1007C00048BF40424FF000013EE700BF42004FEA01
:1007D000E2014FEA31014FEA02701FBF12F07F437E
:1007E00093F07F4F81F06051704792F0000F14BF7B
:1007F00093F07F4F704730B54FF4607401F00045BF
:1008000021F0004120E700BF50EA010208BF704715
:1008100030B54FF000050AE050EA010208BF70470A
:1008200030B511F0004502D5404261EB41014FF473
:10083000806404F132045FEA915C3FF4DCAE4FF077
:1008400003025FEADC0C18BF03325FEADC0C18BF5E
:10085000033202EBDC02C2F1200300FA03FC20FAAF
:1008600002F001FA03FE40EA0E0021FA02F11444FC
:10087000C1E600BF70B54FF0FF0C4CF4E06C1CEA11
:1008800011541DBF1CEA135594EA0C0F95EA0C0F86
:1008900000F0DEF82C4481EA030621EA4C5123EAF9
:1008A0004C5350EA013518BF52EA033541F4801128
:1008B00043F4801338D0A0FB02CE4FF00005E1FBDB
:1008C00002E506F00042E0FB03E54FF00006E1FB25
:1008D00003569CF0000F18BF4EF0010EA4F1FF0468
:1008E000B6F5007F64F5407404D25FEA4E0E6D41A8
:1008F00046EB060642EAC62141EA55514FEAC520B9
:1009000040EA5E504FEACE2EB4F1FD0C88BFBCF534
:10091000E06F1ED8BEF1004F08BF5FEA500E50F1E5
:10092000000041EB045170BD06F0004646EA0101AB
:1009300040EA020081EA0301B4EB5C04C2BFD4EBDD
:100940000C0541EA045170BD41F480114FF0000ED6
:10095000013C00F3AB8014F1360FDEBF002001F044
:10096000004170BDC4F10004203C35DA0C341BDCBE
:1009700004F11404C4F1200500FA05F320FA04F090
:1009800001FA05F240EA020001F0004221F00041C4
:1009900010EBD37021FA04F642EB06015EEA430E37
:1009A00008BF20EAD37070BDC4F10C04C4F1200567
:1009B00000FA04F320FA05F001FA04F240EA02001A
:1009C00001F0004110EBD37041F100015EEA430EEB
:1009D00008BF20EAD37070BDC4F1200500FA05F20B
:1009E0004EEA020E20FA04F301FA05F243EA02038A
:1009F00021FA04F001F0004121FA04F220EA020099
:100A000000EBD3705EEA430E08BF20EAD37070BDDE
:100A100094F0000F0FD101F00046400041EB0101BE
:100A200011F4801F08BF013CF7D041EA060195F0A0
:100A3000000F18BF704703F00046520043EB03035A
:100A400013F4801F08BF013DF7D043EA0603704747
:100A500094EA0C0F0CEA135518BF95EA0C0F0CD052
:100A600050EA410618BF52EA4306D1D181EA030198
:100A700001F000414FF0000070BD50EA410606BF92
:100A80001046194652EA430619D094EA0C0F02D1D7
:100A900050EA013613D195EA0C0F05D152EA03361C
:100AA0001CBF104619460AD181EA030101F000413A
:100AB00041F0FE4141F470014FF0000070BD41F083
:100AC000FE4141F4780170BD70B54FF0FF0C4CF45D
:100AD000E06C1CEA11541DBF1CEA135594EA0C0F7C
:100AE00095EA0C0F00F0A7F8A4EB050481EA030EC9
:100AF00052EA03354FEA013100F088804FEA0333B0
:100B00004FF0805545EA131343EA12634FEA02227D
:100B100045EA111545EA10654FEA00260EF000413E
:100B20009D4208BF964244F1FD0404F5407402D290
:100B30005B084FEA3202B61A65EB03055B084FEA21
:100B400032024FF480104FF4002CB6EB020E75EB1E
:100B5000030E22BFB61A754640EA0C005B084FEA46
:100B60003202B6EB020E75EB030E22BFB61A7546C3
:100B700040EA5C005B084FEA3202B6EB020E75EB0E
:100B8000030E22BFB61A754640EA9C005B084FEA86
:100B90003202B6EB020E75EB030E22BFB61A754693
:100BA00040EADC0055EA060E18D04FEA051545EA82
:100BB00016754FEA06164FEAC30343EA52734FEA2B
:100BC000C2025FEA1C1CC0D111F4801F0BD141EAA4
:100BD00000014FF000004FF0004CB6E711F4801F09
:100BE00004BF01430020B4F1FD0C88BFBCF5E06FE9
:100BF0003FF6AFAEB5EB030C04BFB6EB020C5FEAF9
:100C0000500C50F1000041EB045170BD0EF0004E4D
:100C10004EEA113114EB5C04C2BFD4EB0C0541EA7F
:100C2000045170BD41F480114FF0000E013C90E67C
:100C300045EA060E8DE60CEA135594EA0C0F08BF40
:100C400095EA0C0F3FF43BAF94EA0C0F0AD150EA3F
:100C500001347FF434AF95EA0C0F7FF425AF1046D2
:100C600019462CE795EA0C0F06D152EA03353FF4FA
:100C7000FDAE1046194622E750EA410618BF52EA77
:100C800043067FF4C5AE50EA41047FF40DAF52EA4B
:100C900043057FF4EBAE12E74FF0FF3C06E000BFE8
:100CA0004FF0010C02E000BF4FF0010C4DF804CDF5
:100CB0004FEA410C7FEA6C5C4FEA430C18BF7FEAB5
:100CC0006C5C1BD001B050EA410C0CBF52EA430CE3
:100CD00091EA030F02BF90EA020F0020704710F163
:100CE000000F91EA030F58BF994208BF90422CBFF2
:100CF000D8176FEAE37040F0010070474FEA410CEB
:100D00007FEA6C5C02D150EA013C07D14FEA430C08
:100D10007FEA6C5CD6D152EA033CD3D05DF8040B79
:100D2000704700BF8446104662468C4619466346AB
:100D300000E000BF01B5FFF7B7FF002848BF10F182
:100D4000000F01BD4DF808EDFFF7F4FF0CBF0120C7
:100D500000205DF808FB00BF4DF808EDFFF7EAFF43
:100D600034BF012000205DF808FB00BF4DF808EDFE
:100D7000FFF7E0FF94BF012000205DF808FB00BFF3
:100D80004DF808EDFFF7CEFF94BF012000205DF87D
:100D900008FB00BF4DF808EDFFF7C4FF34BF01208A
:100DA00000205DF808FB00BF4FEA410C7FEA6C5C55
:100DB00002D150EA013C0AD14FEA430C7FEA6C5C55
:100DC00002D152EA033C02D14FF0000070474FF0CD
:100DD000010070474FEA4102B2F1E04324BFB3F58E
:100DE000001CDCF1FE5C0DD901F0004C4FEAC002A2
:100DF0004CEA5070B2F1004F40EB830008BF20F086
:100E00000100704711F0804F21D113F13872BCBF3F
:100E100001F00040704741F480114FEA5252C2F194
:100E20001802C2F1200C10FA0CF320FA02F018BFDD
:100E300040F001004FEAC1234FEAD32303FA0CFC30
:100E400040EA0C0023FA02F34FEA4303CCE77FEABF
:100E5000625307D150EA01331EBF4FF0FE4040F409
:100E60004000704701F0004040F0FE4040F40000B8
:100E7000704700BF2DE9F0432DED028B8BB057EC8E
:100E8000106B55EC114B00F061F82E4BB0EE408A20
:100E9000F0EE608A93F90080B8F1FF3F31D022462E
:100EA0002B4620462946FFF77FFF50BB32463B4684
:100EB00030463946FFF778FF814610BB00220023F9
:100EC00020462946FFF73EFFD8B11F4BCDF82090B2
:100ED0000122CDE90267CDE904458DE80C00B8F1A7
:100EE000000F17D1CDE90667684600F069F9E0B157
:100EF000089B0BBB9DED060B0BB0BDEC028BBDE858
:100F0000F083B0EE480AF0EE680A0BB0BDEC028B3D
:100F1000BDE8F0830022002310461946FFF7D4FDF8
:100F2000B8F1020FCDE90601DED100F04BF9212323
:100F30000360089B002BDDD000F044F9089B0360A0
:100F4000D8E700BFF0110020D01100202DE9F84FA4
:100F500053EC112B23F0004952EA090055EC104BD9
:100F600025D005F000468F4885EA060B83451EDC38
:100F700050421043DFF844C249EAD070604511EE98
:100F8000108A14D8CB451F4610EE10AA11EE10EAB5
:100F900010EE101A17DC28DB944226D313D1824BB3
:100FA000F60F03EBC60393ED000BBDE8F88F204668
:100FB0002946FFF75FFC02460B46FFF785FD41EC33
:100FC000100BBDE8F88FBBF5801F12DABBF1000FE4
:100FD00040F0A780BAF1000F534674480DDD5B0066
:100FE000002B00F1FF30FADC07E045EC104BBDE8C8
:100FF000F88F4FEA2B50A0F2FF30B9F5801F0FDABF
:10100000B9F1000F40F0A780B8F1000F4346DFF8B8
:101010009CC109DD5B00002B0CF1FF3CFADC03E016
:101020004FEA295CACF2FF3C614B98425BDBCBF3AF
:10103000130343F480135E4A944563DBC7F313053F
:1010400045F48015CCEB000007E052EA040313D00E
:10105000E30F03EB420361000138CEEB01045A1B9E
:1010600090B1714538BF02F1FF32002AEDDACA0FA4
:1010700002EB43034900EFE74B4BF60F03EBC606C9
:1010800096ED000BBDE8F88F7145154638BF02F1AB
:10109000FF35002DACBFCEEB01011D4655EA010323
:1010A000EAD0444A954208DCCB0F03EB4505954254
:1010B0000CF1FF3C4FEA4101F6DD3D4B9C4554DA13
:1010C0003B4ACCEB0202142A5BDCC2F1200305FA96
:1010D00003F3D1400B43154145EA0601184641ECA4
:1010E000100BBDE8F88F3249091A1F292DDCC1F118
:1010F00020030BFA01FB2AFA03F343EA0B030AFA73
:1011000001F198E72A4CCCEB04041F2C15DCC4F148
:10111000200209FA04F528FA02F2154308FA04FE3F
:1011200090E74FEACB23002B21487FF766AF5B00A7
:10113000002B00F1FF30FADC5FE71F4DCCEB05051B
:1011400008FA05F54FF0000E7CE71B4B1B1A0AFA54
:1011500003F300216FE7DFF858C04FEAC9235B00B3
:10116000002B0CF1FF3CFADC5EE7A5F580152E4361
:101170000CF2FF3C46EA0C530A4643EC102BBDE848
:10118000F88F1F2A07DCC2F120039D40D14045EAB9
:1011900001033546A0E7084BCCEB030345FA03F304
:1011A000354699E7FFFFEF7FD8110020EDFBFFFFE9
:1011B00002FCFFFFFFFF0F00E2FBFFFF0000F07FDC
:1011C00000207047014B1868704700BF20160020B0
:1011D000666D6F6400000000000000000000000069
:0C11E0000000000000000080F81100205A
:1011F000010000000000000000000000E4140020D6
:101200004C150020B4150020000000000000000074
:1012100000000000000000000000000000000000CE
:1012200000000000000000000000000000000000BE
:1012300000000000000000000000000000000000AE
:10124000000000000000000000000000000000009E
:10125000000000000000000000000000000000008E
:10126000000000000000000000000000000000007E
:10127000000000000000000000000000000000006E
:10128000000000000000000000000000000000005E
:10129000000000000000000000000000000000004E
:1012A00001000000000000000E33CDAB34126DE6EB
:1012B000ECDE05000B000000000000000000000054
:1012C000000000000000000000000000000000001E
:1012D000000000000000000000000000000000000E
:1012E00000000000000000000000000000000000FE
:1012F00000000000000000000000000000000000EE
:08162000F81100200000000099
:040000052000004F88
:00000001FF
